:1000000093C20000D2C20000D0C20000CEC20000E5
:10001000CCC20000CAC20000C8C20000C6C20000B4
:10002000C4C20000C2C200000C941A320C94F03218
:10003000BCC20000BAC20000B8C20000B6C20000D4
:10004000B4C200003CC40000B0C20000AEC2000058
:10005000ACC20000AAC20000A8C20000A6C20000F4
:10006000A4C20000A2C20000A0C200009EC2000004
:100070009CC200009AC2000098C2000096C2000014
:100080000C94090A92C2000090C200008EC20000C7
:100090008CC200008AC20000424545465645523196
:1000A000FC479EAF01000116034200450045004693
:1000B00000200042004F0041005200440000000AAE
:1000C00003530045004700560000000403090406DE
:1000D000EBFF0901150026FF00A10185010901952B
:1000E0008A7508B1028502090295017508B1028579
:1000F00003090395077508B102850409049518756D
:1001000008B10285050905951875088102C0050129
:100110000902A1010901A1020931093015FF2501D8
:1001200035FF4501950275088106C0C00501090625
:10013000A101050719002AFF00150026FF00950DF3
:1001400075088100C01A03430065006E00740072D8
:1001500000650020004200610072002000420000A3
:10016000001A03430065006E0074007200650020F1
:10017000004200610072002000470000001A0343A3
:100180000065006E0074007200650020004200618E
:100190000072002000520000001803540075007225
:1001A000006E007400610062006C00650020004277
:1001B00000000018035400750072006E00740061A6
:1001C0000062006C00650020004700000018035426
:1001D00000750072006E007400610062006C0065C2
:1001E00000200052000000140342007500740074E7
:1001F000006F006E00200031003100000014034247
:10020000007500740074006F006E00200031003033
:10021000000000120342007500740074006F006E4D
:1002200000200039000000120342007500740074C1
:10023000006F006E002000380000001203420075BD
:1002400000740074006F006E002000370000001280
:100250000342007500740074006F006E00200036C9
:10026000000000120342007500740074006F006EFD
:100270000020003500000012034200750074007475
:10028000006F006E00200034000000120342007571
:1002900000740074006F006E002000330000001234
:1002A0000342007500740074006F006E002000327D
:1002B000000000120342007500740074006F006EAD
:1002C0000020003100000009028D00050100C0FA85
:1002D00009040000020300000009211101000122AD
:1002E0007F0107058103400001070502034000016B
:1002F000090401000103000000092111010001228D
:1003000019000705830340000109040200010300EE
:100310000000092111010001221E0007058403408D
:10032000000109040300010300000009211101007C
:1003300001223F0007058603400001090404000173
:100340000300000009211101000122150007050525
:10035000034000011201100100000040CF1C488042
:100360000100010200011201100100000040CF1C39
:1003700018100100010200011201100100000040EC
:10038000EDFE000001000102000106EBFF0902156D
:100390000026FF00A1010901751895109102C00502
:1003A000010904A1010901A1020930093116000067
:1003B00026FF0035FF4501950275088102C0050939
:1003C0001901290E150025017501950E810275028E
:1003D00095018101050A0901A102050909017911A7
:1003E000750195019102C0050A0902A102050909DA
:1003F000027912750195019102C0050A0903A10253
:10040000050909037913750195019102C0050A09CF
:1004100004A102050909047914750195019102C02E
:10042000050A0905A1020509090579157501950156
:100430009102C0050A0906A1020509090679167587
:100440000195019102C0050A0907A10205090907E2
:100450007917750195019102C0050A0908A10205E5
:100460000909087918750195019102C0050A090961
:10047000A102050909097919750195019102C005C3
:100480000A090AA1020509090A791A75019501915B
:1004900002C0050A090BA1020509090B791B7501A8
:1004A00095019102C0750595019101150025FF0583
:1004B0000A0901A1020508094B791C7508950191EB
:1004C00002C00902A1020508094B791D75089501B2
:1004D0009102C00903A1020508094B791E75089510
:1004E000019102C0150025FF050A0901A1020508B6
:1004F000094B791F750895019102C00902A10205F7
:1005000008094B7920750895019102C00903A102E1
:100510000508094B7921750895019102C0C049046D
:10052000BF08081BA423752E11241FBECFEFD0E2F5
:10053000DEBFCDBF04B603FE15C0809194088115BF
:1005400089F084B7877F84BF0FB6F894A89580910F
:100550006000886180936000109260000FBE10926E
:100560009408D9D513E0A0E0B1E0E4E5F2E700E0BB
:100570000BBF02C007900D92AC32B107D9F728E04B
:10058000ACE2B3E001C01D92A439B207E1F712E07A
:10059000C4E9D2E004C02197FE010E947A37CF3827
:1005A000D107C9F778D50C9428392ACDFC011082DF
:1005B00011821282138214820895FC0180912C030F
:1005C00090912D03A0912E03B0912F03860F971FBA
:1005D000A11DB11D81839283A383B48381E08083B5
:1005E0000895FC0110820895FC0180810895FC01AA
:1005F00080818115B1F040912C0350912D036091C1
:100600002E0370912F0381819281A381B481481BB5
:10061000590B6A0B7B0B81E014161506160617069C
:100620000CF4089580E00895CF93DF93EC01DFDFB1
:10063000811103C0DF91CF9108951882DF91CF918E
:100640000895FC018081811101C00895CF01ECDF84
:1006500091E089270895FC016183428323831186F9
:10066000108260E070E00496A8CF1F93CF93DF93D1
:10067000EC01162F8B81322F381B89813817B4F586
:10068000992781950CF49095032E001C0008831780
:100690009005FCF01FEF2B831987642F70E0CE01CB
:1006A00004968BDF9881898521E029831883482F60
:1006B000552741950CF45095092E001C00089417FD
:1006C000050619F49A81911180E0DF91CF911F9175
:1006D0000895CE010496B5DF811551F081E089833C
:1006E00018828985DF91CF911F91089511E0D3CFB2
:1006F00019861983188280E0DF91CF911F910895A8
:10070000FC0190917C0082818770987F892B809377
:100710007C0080917A00806480937A0080917A00D6
:1007200086FDFCCF8091790083830895FC0183814D
:100730000895FC0127813085ADECBCEC0E94553753
:100740009695879596958795969587950895EF92B6
:10075000FF920F931F93CF93FC01A281B3812C9141
:100760008C9130E0948102C0359527959A95E2F7F7
:10077000220F227090E0358102C0959587953A95B9
:10078000E2F78170282BA681B0E0AA0FBB1FAA0F49
:10079000BB1FAE58BC4FA20FB11D3C91311509F4DF
:1007A0003FC08FB7F89440912C0350912D03609176
:1007B0002E0370912F038FBF87859089A189B289FD
:1007C0007A018B01E81AF90A0A0B1B0BD801C70141
:1007D000009701E0A007B10550F596878587478708
:1007E000508B618B728B81859285A385B485019630
:1007F000A11DB11D81879287A387B48780911E04B4
:10080000811571F0478150858B30B0F490E037FF4F
:1008100019C04817590790F0481B590B5087478358
:100820002683CF911F910F91FF90EF9008958FEF46
:100830009FEFA0E0B0E0D1CF8AE0E8CF481B590B92
:10084000565FECCF480F591F41151AE0510730F39E
:100850005A50E4CFFC0185ED92E09183808362835E
:1008600013820895FC018DED92E091838083738360
:10087000628344832583168210861782118612862E
:1008800013861486168615861786108A118A128A90
:10089000089565E08EE693E0DDDF64E08AE693E0AC
:1008A000D9DF21E040E06FE270E087E593E0DADF36
:1008B00023E042E06FE270E084E493E0D3CF1F9244
:1008C0001FB61F9211248F939F93AF93BF93809174
:1008D0002C0390912D03A0912E03B0912F0301962C
:1008E000A11DB11D80932C0390932D03A0932E0383
:1008F000B0932F03BF91AF919F918F911F901FBE17
:100900001F9018958091E00081608093E00088E15D
:100910009CE00FB6F894A895809360000FBE90936A
:100920006000FFCFE1E8F0E080818860808389EF9C
:1009300090E09093890080938800AFE6B0E08C91BE
:1009400082608C93808183608083089580E68093A9
:100950007C0087E880937A000895FC01878D8330BE
:1009600008F00895CF010C94A329CF93DF93D82FDB
:10097000C92F8091870390918803813021E09207ED
:1009800019F1B8F48138910581F160E08238910560
:1009900049F48D2F9C2F0E94E80D61E08D2F9C2F34
:1009A0000E94EE0D8D2F9C2FD8DFDF91CF910C94FC
:1009B000FF3161E08230914061F38D2F9C2FCDDFBC
:1009C000DF91CF910C94FF3161E08D2F9C2F0E941D
:1009D000E80D60E08D2F9C2F0E94EE0D8D2F9C2F37
:1009E000BCDFDF91CF910C94FF3160E0EECF10922D
:1009F0008203089542E361EC81E00E94313142E3D9
:100A000060EC82E00E94313142E361EC83E00E94BD
:100A1000313142E361EC84E00E94313142E360EC29
:100A200085E00E94313142E361EC86E00C94313183
:100A30008EEA91E00C94C934AF92BF92CF92DF92CC
:100A4000EF92FF920F931F93CF93DF937C01EB0103
:100A5000D90168014115F1F04230B1F48881833049
:100A600009F440C068F5813009F45EC0823061F459
:100A700080E0DF91CF911F910F91FF90EF90DF9079
:100A8000CF90BF90AF9008958091EB0080628093EB
:100A9000EB00EECF8EEAE81681E0F80609F451C0CB
:100AA0008091840390918503FC0120813181F901BB
:100AB000A080B1809D01AB01B701F5010995D9CFA7
:100AC000843011F79FB7F89488E1E9E8F3E00190EA
:100AD0000D928A95E1F79FBF88E190E0F60191833E
:100AE0008083C6CFE0EAF0E045915591659175911C
:100AF0004D935D936D937C931397E4EAF0E0E4915A
:100B00001496EC931497E5EAF0E0E4911596EC93D3
:100B10001597E6EAF0E0E4911696EC9387E090E012
:100B2000F80191838083A4CF8AE8E0E0F4E00190AB
:100B30000D928A95E1F78AE890E0F801918380832D
:100B400097CF85E08883BECF0F931F93CF93DF931A
:100B5000CDB7DEB7CA58D1090FB6F894DEBF0FBEC5
:100B6000CDBFF901423091F4623029F1D8F46130FF
:100B7000E1F40A381105C9F48AE8DE011196019002
:100B80000D928A95E1F7CE010196DCD7C657DF4F6B
:100B90000FB6F894DEBF0FBECDBFDF91CF911F918E
:100BA0000F9108956350623088F38091EB0080626A
:100BB0008093EB00EBCF01301105B9F78081809372
:100BC0008303E4CF8FE592E012DD80936402089501
:100BD000FC01808190E08095909502C09595879565
:100BE0004A95E2F78170992702C0880F991F6A958C
:100BF000E2F72091870330918803822B932B909307
:100C000088038093870308950F931F93CF931092C7
:100C100088031092870300EC11E0C0E0F8014481E2
:100C20006C2F80819181D4DFCF5F025F1F4FCB306B
:100C3000A9F780918603209187033091880381155D
:100C400029F081E0232B61F020E030E080938603DF
:100C50003093880320938703CF911F910F910895BC
:100C600080E0F2CFCF93DF93CDB7DEB760970FB6BA
:100C7000F894DEBF0FBECDBF811509F191E08FEF73
:100C800020E1FE013196DF01322F1D923A95E9F7FE
:100C90008A839B839D83888789879C879E878F878C
:100CA000A2E7B3E001900D922A95E1F760960FB6A6
:100CB000F894DEBF0FBECDBFDF91CF9108959FEFB7
:100CC00081E0DECF0F931F93CF93DF938C01EB0175
:100CD000F9014115E1F050E080E090E060E09F0113
:100CE000082E02C0369527950A94E2F720FF0BC024
:100CF0009E01280F391FD9017C919801260F311DC3
:100D0000D9017C936F5F01968417950741F7DF91B6
:100D1000CF911F910F910895CF93DF93FC01EB01C9
:100D20008827987F20E030E061E070E0AF01022E7C
:100D300002C0569547950A94E2F740FF0DC0DE01C8
:100D4000A20FB31F4C91DB0102C0AA0FBB1F4A9533
:100D5000E2F7AD018A2B952B2F5F3F4F2B303105EA
:100D600029F7DF91CF9108952F923F924F925F9292
:100D70006F927F928F929F92AF92BF92CF92DF92AB
:100D8000EF92FF920F931F93CF93DF93CDB7DEB710
:100D90002C970FB6F894DEBF0FBECDBF2C0180910B
:100DA0006402811521F04090870350908803809160
:100DB0000504811511F1E1EAF3E010821182369603
:100DC00023E0E33EF207C9F72C960FB6F894DEBF96
:100DD0000FBECDBFDF91CF911F910F91FF90EF908C
:100DE000DF90CF90BF90AF909F908F907F906F904B
:100DF0005F904F903F902F90EAC38FEE93E021DCFD
:100E00008111D9CF8FB7F894C0902C03D0902D03C7
:100E1000E0902E03F0902F038FBF01EA13E01886B5
:100E20001F82662463943C2C2D2CED82FE82C986A1
:100E3000DA86EB86FC8647C080917D0490917E0423
:100E4000F8012081211509F456C01082C984DA8482
:100E5000EB84FC84C282D382E482F58261820097B3
:100E600009F467C04C01A12CB12C39822A82CD80B3
:100E7000CB82DE80DC82A5019401C984DA84EB8414
:100E8000FC842C193D094E095F09C980DA80EB808A
:100E9000FC802C0D3D1D4E1D5F1DA62FB0E00E9455
:100EA0006A37A50194010E941737622F872D89D3D5
:100EB0002F8138852F5F3F4F38872F830A5F1F4F61
:100EC0002B303105D1F17F8060915804653608F0F0
:100ED00064E6C2010F8002C0969587950A94E2F7F6
:100EE00081709927209159042817190609F4A4CF75
:100EF000D8016C92DBCF21812115D9F00097C9F080
:100F0000C280D380E480F580C982DA82EB82FC82E1
:100F10004C01A12CB12C29853A854B855C852C1977
:100F20003D094E095F09281739074105510508F4A5
:100F3000A2CFF801118260E0B9CF2C960FB6F894D9
:100F4000DEBF0FBECDBFDF91CF911F910F91FF90FC
:100F5000EF90DF90CF90BF90AF909F908F907F9059
:100F60006F905F904F903F902F9008951092640281
:100F7000E1EAF3E010821182369683E0E33EF8075F
:100F8000C9F725D361E087E398E00C94DE2DEEDF0E
:100F900081E080939408B6DC80918303823029F04D
:100FA000833051F0813039F008951092000480E0D0
:100FB00094E02CD4A7DCEBDFA5DC80918703909133
:100FC0008803039709F00895E2DF84B7877F84BF21
:100FD0000FB6F894A89580916000886180936000B6
:100FE000109260000FBE80E890E00FB6F8948093F6
:100FF0006100909361000FBE95DCA8DC80B3807F18
:1010000080BB81B38F6081BBEEEBF1E021E030E08B
:10101000A081B1814C918681B90102C0660F771F12
:101020008A95E2F7CB01809584238C93A781B085C4
:101030008C914585B90102C0660F771F4A95E2F78A
:10104000862B8C93A481B5818C914681B90102C015
:10105000660F771F4A95E2F7862B8C93A385B4859C
:101060004C918585B90102C0660F771F8A95E2F71A
:10107000CB01809584238C933E9672E0E835F70788
:1010800039F689D27894C0DD98DF81E080938603B9
:1010900010929408089599DF80E094E031D580E0C3
:1010A00094E00E942A1280E094E05FDC60E070E04F
:1010B0008FE592E082DA60E070E089E592E07DDA27
:1010C000809182038111FCCF67DF7CDD9DDD9AD2A8
:1010D0008091840390918503DC01ED91FC91048063
:1010E000F581E02D60E074E0099580918403909192
:1010F0008503DC01ED91FC910280F381E02D60E03D
:1011000074E009958EEA91E00E940C36D9CF81E017
:10111000809382032BCFF894E0EEF0E08081816031
:101120008083E8EDF0E08081806280831092C900C6
:101130008FE19EE40197F1F700C000001DBA109204
:1011400068001CBC10BE1FBA10927A0010926E008C
:1011500010926F0010927000109271001092BC00FB
:1011600011B814B817B81AB81DB810BA12B815B813
:1011700018B81BB81EB811BA0C940078089586E010
:10118000E8E1F1E0AEEBB1E001900D928A95E1F774
:1011900086E0E8E1F1E0A5ECB1E001900D928A95DE
:1011A000E1F786E0E6E0F1E0ACECB1E001900D9211
:1011B0008A95E1F786E0E6E0F1E0A3EDB1E0019089
:1011C0000D928A95E1F786E0E2E1F1E0AAEDB1E067
:1011D00001900D928A95E1F786E0E2E1F1E0A1EE5F
:1011E000B1E001900D928A95E1F786E0E2E1F1E04D
:1011F000A8EEB1E001900D928A95E1F786E0E2E178
:10120000F1E0AFEEB1E001900D928A95E1F786E052
:10121000E2E1F1E0A6EFB1E001900D928A95E1F7ED
:1012200086E0E2E1F1E0ADEFB1E001900D928A9548
:10123000E1F786E0E2E1F1E0A4E0B2E001900D9296
:101240008A95E1F786E0E2E1F1E0ABE0B2E00190FF
:101250000D928A95E1F786E0E6E0F1E0A2E1B2E0E6
:1012600001900D928A95E1F786E0E6E0F1E0A9E1D0
:10127000B2E001900D928A95E1F786E0ECE0F1E0B2
:10128000A0E2B2E001900D928A95E1F786E0ECE0F1
:10129000F1E0A7E2B2E001900D928A95E1F786E0D5
:1012A000E0E0F1E0AEE2B2E001900D928A95E1F764
:1012B00086E0E0E0F1E0A5E3B2E001900D928A95CE
:1012C000E1F786E0E0E0F1E0ACE3B2E001900D92FE
:1012D0008A95E1F786E0E0E0F1E0A3E4B2E0019076
:1012E0000D928A95E1F786E0ECE0F1E0AAE4B2E045
:1012F00001900D928A95E1F786E0ECE0F1E0A1E53E
:10130000B2E001900D928A95E1F70895CF93DF93B3
:10131000FC01DC016D9385E0ED01982F19929A95FF
:10132000E9F7DF011696ED0119928A95E9F7138620
:101330001586148616861786108A118ADF91CF913A
:101340000895EF92FF920F931F93CF93DF93EC01D9
:101350008B0180912C0390912D03A0912E03B091CD
:101360002F034E855F8568897989481759076A0771
:101370007B0779F18E879F87A88BB98B7E0186E0EA
:10138000E80EF11CC7015DD9811105C08C859D85D2
:101390008017910731F58B85811109C01D870C8756
:1013A000DF91CF911F910F91FF90EF9008957E01F3
:1013B0008FEFE81AF80AC7011AD9982F8B85911573
:1013C00069F381508B876EE170E0C701F6D88B8599
:1013D000E5CF8B85DF91CF911F910F91FF90EF901B
:1013E00008958B8590E02881422F50E001962817C0
:1013F00019060CF4CA018B876EE170E0CE010196EC
:10140000DCD86FE070E0C701D8D88B85811531F248
:10141000CECF8F938FB78F939F939091E30381E00B
:10142000890F933609F4B4C0982F9093E3039091F9
:10143000E403891708F056C0719A8091E5039091F2
:10144000E303981708F056C02F9A8091E603909115
:10145000E303981708F056C05D9A8091E7039091D6
:10146000E303981708F056C05B9A8091E8039091C7
:10147000E303981708F056C0599A8091E9039091B8
:10148000E303981708F056C05F9A8091EA039091A1
:10149000E303981708F056C02D9A8091EB039091C2
:1014A000E303981708F056C0419A8091EC0390919D
:1014B000E303981708F056C0139A8091ED039091BA
:1014C000E303981708F056C0159A8091EE039091A7
:1014D000E303981708F056C0439A9F918F918FBFEE
:1014E0008F91189571988091E5039091E303981777
:1014F00008F4AACF2F988091E6039091E303981700
:1015000008F4AACF5D988091E7039091E3039817C0
:1015100008F4AACF5B988091E8039091E3039817B1
:1015200008F4AACF59988091E9039091E3039817A2
:1015300008F4AACF5F988091EA039091E30398178B
:1015400008F4AACF2D988091EB039091E3039817AC
:1015500008F4AACF41988091EC039091E303981787
:1015600008F4AACF13988091ED039091E3039817A4
:1015700008F4AACF15988091EE039091E303981791
:1015800008F4AACF43989F918F918FBF8F911895A0
:1015900090E080E04ACF10929000E1E9F0E0108204
:1015A000109295001092940083E690E09093990039
:1015B0008093980082E088BB809371008AE08083EA
:1015C0000895E82FF0E0EC51FC4F608308952FB7A9
:1015D000F89480E090E0FC01EC51FC4F1082019601
:1015E0008B309105C1F7719885B18F7585B98BB135
:1015F00085758BB988B1857F88B982B1877D82B9BD
:101600002FBF0895CF92DF92EF92CF93DF93E091B7
:10161000F403F091F5038091870390918803099575
:10162000C72FD82F209701F181E08093FA03809390
:1016300064028091F903811111C06115B9F180E054
:1016400094E0FE0109956B01E82EC092F603D0925A
:10165000F703E092F803672B09F448C0DF91CF91BC
:10166000EF90DF90CF9008958091FA038115B1F348
:101670001092FA031092F9038BEF93E00E94F102AB
:101680008FEE93E00E94F10281EC94E00E94F1025F
:101690008091F6039091F703009701F36091F803AE
:1016A000DF91CF91EF90DF90CF904AC28BEF93E024
:1016B0000E94F402811529F18BEF93E00E9414033C
:1016C000811561F280E094E0FE0109956093F603D4
:1016D0007093F7038093F80368EE73E08FEE93E066
:1016E0000E94DD0281E08093F903B8CF64EF71E0DE
:1016F0008FEE93E0DF91CF91EF90DF90CF900C943D
:10170000DD0268EE73E08BEF93E00E94DD02D4CF40
:10171000CF93DF93FC01DC01A358BF4F8D919C91C7
:101720001197893E934008F06DC095978C9185364E
:1017300008F068C011968C91823008F063C0119651
:101740008C91823008F05EC092968C91833008F0C4
:1017500059C056979F012F583F4F8D91853608F0FD
:1017600051C01A968C911A97823008F04BC0A2177C
:10177000B30799F7DF01A158BF4FEF01C657DF4FFD
:1017800020E030E061E070E08D918B30D8F5AB0166
:1017900002C0440F551F8A95E2F7CA014223532322
:1017A000452B81F5282B392BAC17BD0769F78281B2
:1017B0008A3040F58481893028F5868D81508A30C1
:1017C00008F5878D8330F0F480A18230D8F481A1B0
:1017D0008230C0F4DF01A25BBF4F8C91811591F084
:1017E00011968C91811571F011968C91811551F0A3
:1017F00014968C91823030F4EB5AFF4F81E0908147
:10180000923008F080E0DF91CF910895DF92EF925F
:10181000FF920F931F93CF93DF93EC0188818F305A
:1018200009F462C1E0F4873009F45BC1C8F5833084
:1018300009F441C108F024C1813009F4EDC08230BF
:1018400009F4EAC0198281E08A8384E08C831D82D6
:1018500080E88E838FEF8F83888794E0EAC087319A
:1018600009F444C158F4833109F423C108F002C1DA
:10187000813139F1823129F11E8DC5C08B3109F4D6
:101880001DC108F004C1893109F482C08A3109F40C
:101890007FC0FE01E95AFF4FE080F12C1E8D46C04B
:1018A0008B3009F47CC008F0FBC0893009F416C104
:1018B0008A3009F474C09C811E8D1F8E18A219A253
:1018C00070C01E8DFE01EC5AFF4F1082FE01EB5AD4
:1018D000FF4F1082FE01EA5AFF4F10821B82FE0169
:1018E000E95AFF4F119284E681931082E12CF12C8A
:1018F00000E084E6D82E60E070E04BE050E0CE01DE
:10190000855A9F4F0E94DA386D2D70E04BE050E011
:10191000CE018A599F4F0E94DA38602F70E04BE069
:1019200050E0CE018F589F4F0E94DA38FE01E65AF0
:10193000FF4F1082B2961082FE01E358FF4FF182F2
:10194000E082FE01E158FF4F80E081938F5F8B3092
:10195000E1F78EE18883111509F48AC0612F70E0E8
:10196000CB0109960E94043761117CC061E06E8F43
:101970008FE188834AE850E062E070E0CE01DF91B9
:10198000CF911F910F91FF90EF90DF900C94F6385C
:10199000FE01E95AFF4FE080F12C1E8DCDCF9C81D6
:1019A0001E8D85E88AA384E1DE019396FD01282F30
:1019B00011922A95E9F72DE0E1EEF2E001900D9207
:1019C0002A95E1F7DE01D796FD0111928A95E9F794
:1019D00089E0E8ECF2E001900D928A95E1F795300C
:1019E00010F09E5F9C83FE01E55BFF4F119284E047
:1019F000819310828CE3FE01E25BFF4F819383E0D1
:101A0000819388E1808380E8FE01EF5AFF4F819344
:101A10008FEF8193808356CF8A8194E09C831D82CF
:101A200020E82E832FEF2F832887853010F08F5FDB
:101A30008A8320E829878FEF8A878B871C868D878A
:101A40008E871F86888B898B1A8A8B8B8C8B1D8A3D
:101A50008E8B8F8B288F898F8A8F2B8F8C8F8D8F7A
:101A600012E02BCF6B3008F482CF8AE08E8F80CFCC
:101A70006AE07DCF853181F1863111F11E8D2ACF4B
:101A8000853039F1863099F08A819C81C9CF8D31BA
:101A900029F08E31C9F08C3109F06CCF1E8D59CFF1
:101AA0008D30A1F08E3071F09C811E8D7CCF9C8199
:101AB000C0CF1E8D0BCF8A819C81B1CF1E8D41CFAF
:101AC0001E8D0DCF1E8D8FCF1E8D45CF9C811E8DFF
:101AD00086CF8A819C81A9CF1E8D00CF9C811E8DCF
:101AE000EDCE9C8112E0E9CE1E8D84CFFE01E95A35
:101AF000FF4F6191D190008170E07B011E8DFDCE82
:101B0000CF93DF93EC0180E090E00E94F1388F3EAC
:101B10009E4B59F06FEE7EEB80E090E00E942539FD
:101B20001882CE01DF91CF9171CE4AE850E062E099
:101B300070E0CE010E94E138CE01DF91CF9166CEF8
:101B40000C940539CF93DF93EC01E2DD8115E9F1C7
:101B50008D81811134C0CE0178D48091840390911D
:101B60008503DC01ED91FC910680F781E02DBE013B
:101B700009958AE8FE01A0E0B4E001900D928A95F3
:101B8000E1F7809101048170809301048091050444
:101B90008170809305048091540481708093540473
:101BA000809155048170809355044AE850E062E0CA
:101BB00070E080E094E0DF91CF910C94F63861E022
:101BC00087E398E00E94DE2DC6CFDF91CF91089584
:101BD000FC01678F81E290E00C940539FC01878D50
:101BE000833008F0089560A382E290E00C940539F8
:101BF000CF93DF93EC01698181E06827698383E0FB
:101C000090E00E94173981E09981911101C080E034
:101C100029D881E09981911101C080E00E94EE20D5
:101C200060E070E080E0DF91CF910895FC01828157
:101C300090E001966AE070E00E9404378283682F8A
:101C400084E090E00E9417390E94C31C81E08093D9
:101C5000890560E070E080E00895FC0182818630B3
:101C6000B1F068F48115E1F039966BE0813059F4F8
:101C7000808190913A03890F808370E008957B966C
:101C80006DE18730A9F360E070E080E00895789618
:101C90006AE1808190913A03890F808370E0089512
:101CA000369668E0808190913A03890F808370E0D6
:101CB0000895FC0182818430A9F198F48230A9F161
:101CC0008330D9F0369669E0811113C080913A03D0
:101CD0009181911119C087FD0CC0890F818370E03B
:101CE00008958630E1F08730B9F0759668E1853067
:101CF00069F360E070E080E008953F9662E18091D2
:101D00003A039181911539F39F3F39F718162CF753
:101D100060E070E080E008957B966EE1D7CF789622
:101D20006BE1D4CF729665E1D1CF3C966FE0CECF18
:101D3000FC018281833039F188F0843009F1759695
:101D400068E1853089F480913A039281911110C045
:101D500087FD0AC0890F828370E008958115B1F074
:101D60003C9660E1823079F360E070E080E00895B5
:101D70009F3F81F7181674F760E070E080E00895E7
:101D8000729665E1E0CF3F9662E1DDCF36966AE07C
:101D9000DACF1F93CF93DF9300D00F92CDB7DEB78A
:101DA000182F682F85E090E00E940539198280E89D
:101DB0008A831B824FEF612FCE0101960E9438214A
:101DC0000F900F900F90DF91CF911F910895FC011C
:101DD00083818F3F11F08F5F8383DBDF60E070E0F2
:101DE00080E00895FC018381811511F08150838387
:101DF000D0DF60E070E080E008951F93CF93DF9321
:101E000000D00F92CDB7DEB7182F682F80E290E098
:101E10000E9405398FEF89831A821B824AE0612F65
:101E2000CE0101960E9438210F900F900F90DF9104
:101E3000CF911F910895FC01868D8A3008F089E0CA
:101E40008F5F868FDADF60E070E080E00895FC014C
:101E5000868D823008F482E08150868FCEDF60E08C
:101E600070E080E00895FC01848190E0019669E0D3
:101E700070E00E940437682F811101C06F5F6330EA
:101E8000E9F3648386E090E00E9417390E94022201
:101E900081E08093450560E070E080E00895CF9395
:101EA000DF93EC016D8181E068276D8387E090E02E
:101EB0000E9417398D81811106C060E070E080E0DA
:101EC000DF91CF91089561E087E398E00E94DE2DD5
:101ED00060E070E080E0DF91CF9108959C01FB010C
:101EE000DA01892F99278330910509F443C098F0CE
:101EF0008132910571F18297E1F46230710509F444
:101F0000ADC008F058C0EF2B09F47FC089E190E024
:101F1000ECE2F1E012C08130910591F0029749F4B2
:101F2000E0919804F09199048DE890E0ED93FC9392
:101F3000089580E090E0E0E0F0E0ED93FC930895F8
:101F4000E0919A04F0919B0482E190E0ED93FC9380
:101F500008956230710509F486C008F041C0EF2B86
:101F600009F45CC0E0919804F0919904F29689E03C
:101F700090E0E3CFC9019927213009F46AC082308B
:101F8000910509F461C00097D9F1419797FDD1CF30
:101F9000209197048217910564F6880F991FE091AC
:101FA0009504F0919604E80FF91F0190F081E02D5F
:101FB000849190E0C2CF63307105C1F16430710546
:101FC00009F0B7CF80919C0490919D04E0919E040C
:101FD000F0919F04009709F0B0CFE0E0F0E0ADCFC2
:101FE0006330710541F16430710509F0A2CFE091D1
:101FF0009804F0919904E358FF4F89E090E09DCF59
:10200000EBECF0E0849190E098CFE091A204F091A5
:10201000A3048091A0049091A1048FCFE091980433
:10202000F0919904729689E090E087CF8FE390E079
:10203000EFECF0E082CFE0919804F0919904EC5934
:10204000FF4F89E090E079CFE7EAF0E0849190E0FB
:1020500074CFEFEBF0E0849190E06FCF8EE190E0F1
:10206000EEE0F1E06ACFE0919804F0919904E55B2D
:10207000FF4F89E090E061CF8FB7F89420912C0357
:1020800030912D0340912E0350912F03E6B5A89B6C
:1020900006C0EF3F21F02F5F3F4F4F4F5F4F8FBF85
:1020A000AAEFB0E00E946A376E0F711D811D911D6D
:1020B000660F771F881F991F660F771F881F991F4C
:1020C0000895FC01858596850895FC01848590E03E
:1020D0000895FC016487089580E090E008953C9A9B
:1020E000089581E090E0089580E991E008953D9A97
:1020F000089580E991E00895CF92DF92EF92FF92E8
:102100000F931F93CF93DF93CDB7DEB762970FB6D0
:10211000F894DEBF0FBECDBF7C01FA01DC011C9636
:102120003C91CA0157FF04C088279927841B950B4F
:1021300069837A839C838B839E838D830D871E871F
:102140002F87313041F11C861B861A861986188626
:102150001F8283E0888B1A8A198AF7FF02C08DEFED
:10216000888BD701ED91FC910288F389E02DBE01A7
:102170006F5F7F4FC701099562960FB6F894DEBF77
:102180000FBECDBFDF91CF911F910F91FF90EF90C8
:10219000DF90CF900895809161088F5F982F97709E
:1021A00090936108482F47954427479581FD4064E7
:1021B00082FD2EC0405F9E01295F3F4F8E01065F6A
:1021C0001F4FC12CDD24D394D90116966C91611553
:1021D00029F070E0C6010E9404376F5FD9011396A1
:1021E0006C931397842F869F080E80E0811D112425
:1021F0008D939D01811511F081508E93611521F011
:102200006150D90112966C9320173107E9F6A1CFDE
:102210004062D0CFEF92FF920F931F93CF93DF9343
:10222000CDB7DEB762970FB6F894DEBF0FBECDBF55
:10223000FC0184857A8369834B835C834D835E8351
:102240000D871E872F87813009F11C861B861A8611
:10225000198618861F82188A1A8A198AA081B18164
:1022600052962D913C91BE016F5F7F4FCF01F901D6
:10227000099562960FB6F894DEBF0FBECDBFDF9111
:10228000CF911F910F91FF90EF9008958091610879
:102290008F5F982F977090936108482F4795442738
:1022A000479581FD406482FD2EC0405F9E01295FFD
:1022B0003F4F8E01065F1F4FE12CFF24F394D9019D
:1022C00016966C91611529F070E0C7010E940437E1
:1022D0006F5FD90113966C931397842F869F080E16
:1022E00080E0811D11248D939D01811511F0815095
:1022F0008E93611521F06150D90112966C932017CD
:102300003107E9F6A8CF4062D0CFCF92DF92EF92AB
:10231000FF920F931F93CF93DF93CDB7DEB76597EF
:102320000FB6F894DEBF0FBECDBF7C011B8A1C8A9E
:102330001D8ADC012D913C91D901ED91FC91B1E117
:10234000EA30FB0789F5FC018485AE014D5E5F4FE5
:102350005A8349836B837C836D837E831D861E86AF
:102360001F86813051F11C861B861A8619861886B5
:102370001F82188A1A8A198AD9015296ED91FC9106
:10238000BE016F5F7F4FC701099565960FB6F89440
:10239000DEBF0FBECDBFDF91CF911F910F91FF9098
:1023A000EF90DF90CF90089500E010E020E0AB01C7
:1023B000BE016D5E7F4F0995E8CF809161088F5F08
:1023C000982F977090936108482F47954427479519
:1023D00081FD406482FD4062405FFE0137968E01C0
:1023E000065F1F4FC12CDD24D3946681611529F04F
:1023F00070E0C6010E9404376F5F6383842F869F5D
:10240000080E80E0811D11248193811519F0DF01F0
:1024100081508E93611511F0615062830E171F0772
:1024200021F7A7CF282F30E040E050E060E472E4CD
:102430008FE090E00E9439372093BD043093BE04B2
:102440004093BF045093C0040895FC01E25BFF4F2A
:102450008081E8CFEF92FF920F931F93CF93DF938A
:102460007C0181EC94E00E94D602F701E05BFF4F13
:102470004081242F30E088E190E0B9010E940437C8
:102480006093BC044093BB0463E070E0C9010E9408
:1024900083379093F7048093F604C701D6DF409109
:1024A000BB0450E06091F6047091F70480917B08C2
:1024B000811571F120E030E083E898E00E943A2E27
:1024C000FC0114869093BA048093B9048091620849
:1024D000811509F45CC020E030E040E150E066EC9A
:1024E00074E08AE698E00E943A2EEC011C869093F4
:1024F000B8048093B70440E060E070E087E398E0C0
:10250000DF91CF911F910F91FF90EF900C94FB2DD5
:1025100023E838E010928608109285088FEF8093A8
:10252000890880938A0880938B0880938C08809315
:102530008D0880938E0881E080938F081092910817
:1025400010929008109288081092870880913508A0
:1025500090913608892B09F458C0E0913308F09126
:102560003408309711F03583248330933408209356
:102570003308109293081092920883EF92E09093A0
:1025800084088093830881E080937B0893CF2AE6B8
:1025900038E010926D0810926C088FEF80937008ED
:1025A00080937108809372088093730880937408F5
:1025B0008093750881E080937608109278081092D5
:1025C000770810926F0810926E08809135089091EC
:1025D0003608892BF9F0E0913308F09134083097F0
:1025E00011F03583248330933408209333081092FC
:1025F0007A08109279088BE093E090936B088093AF
:102600006A0881E08093620866CF30933608209391
:102610003508A3CF3093360820933508DCCFDA0194
:10262000611569F1FC01862F90E0BC01660F771FF0
:10263000680F791F6E0F7F1F80E020819C91291702
:1026400061F081E02D913D914C911297219331934E
:1026500041936E177F0789F70895218111969C9108
:1026600011972913EECF91E0328112962C91129797
:10267000321711F0892BE6CF90E0892BE3CF80E071
:102680000895CF93DF9300D00F92CDB7DEB7FA0154
:1026900040813181228149833A832B83AE014F5F90
:1026A0005F4FBDDF0F900F900F90DF91CF91089596
:1026B000FF920F931F93CF93DF9300D000D000D0F1
:1026C000CDB7DEB78C01F62EFA011C821D821E8268
:1026D00020819181828129839A838B83BE016C5FE3
:1026E0007F4FCE0101960E94A52EAE014C5F5F4F39
:1026F0006F2DC80194DF0F900F900F900F900F90E7
:102700000F90DF91CF911F910F91FF900895CF927D
:10271000DF92FF920F931F93CF93DF9300D00F921E
:10272000CDB7DEB78B01F42E6901A6D7F6019181F2
:10273000208129839A838B83AE014F5F5F4F6F2D7A
:10274000C801B6DF0F900F900F90DF91CF911F91CE
:102750000F91FF90DF90CF900895DF92EF92FF925C
:102760000F931F93CF93DF9300D00F92CDB7DEB7B7
:102770008C01F62ED42EE52E8FE592E00E94F70212
:1027800081110FC04D2D5E2D6F2DC8010F900F9040
:102790000F90DF91CF911F910F91FF90EF90DF90FD
:1027A00070CF19821A821B829E012F5F3F4F4F2DDF
:1027B000B80188EA94E0ABDF0F900F900F90DF91A3
:1027C000CF911F910F91FF90EF90DF900895CF92DE
:1027D000DF92EF92FF9280910504811531F080E045
:1027E000FF90EF90DF90CF90089546DC6B017C0165
:1027F0008091F8049091F904A091FA04B091FB043F
:10280000B701A601481B590B6A0B7B0B8091BD04D5
:102810009091BE04A091BF04B091C004481759071D
:102820006A077B07E0F2C092F804D092F904E092C4
:10283000FA04F092FB0481E0FF90EF90DF90CF90DC
:102840000895AF92BF92CF92DF92EF92FF920F93D3
:102850001F93CF93DF93CDB7DEB762970FB6F8948F
:10286000DEBF0FBECDBFE090B904F090BA04D7012F
:10287000ED91FC91A280B38019821A821B82F7012C
:1028800036968E010F5F1F4F6701B9E0CB0ED11C4A
:1028900021912115F1F082818115D9F0422F50E06C
:1028A00060E070E09A01AB012F5F3F4F4F4F5F4FE9
:1028B00090E0A0E0B0E00196A11DB11DDC010E94F6
:1028C00055379B01AC01AFEFB0E00E946A37D801E9
:1028D0008C930F5F1F4FEC15FD05D1F629813A81CE
:1028E0004B81D7011D96ED91FC911E9712966D912B
:1028F0007C91BCE7AB16B0E1BB0609F041C0D70143
:102900001C965C91CF01F7FD36C07A8369839C8366
:102910008B839E838D832D873E874F875130B9F1FE
:102920001C861B861A86198618861F8283E0888B70
:102930001A8A198AF7FD1CC0D701ED91FC91028813
:10294000F389E02DBE016F5F7F4FC7010995629645
:102950000FB6F894DEBF0FBECDBFDF91CF911F91B0
:102960000F91FF90EF90DF90CF90BF90AF900895C0
:102970008DEF888BE1CF882799278E1B9F0BC5CFC2
:102980008901242FAF01C701F5010995E0CF90918E
:1029900061089F5F892F877080936108492F479551
:1029A0004427479591FD406492FD4062405F9E013F
:1029B000295F3F4F8E01065F1F4FC12CDD24D3944A
:1029C000D90116966C91611529F070E0C6010E943C
:1029D00004376F5FD90113966C931397842F869FEA
:1029E000080E80E0811D11248D939D01811511F049
:1029F00081508E93611521F06150D90112966C932C
:102A000002171307E9F692CFAF92BF92CF92DF92EF
:102A1000EF92FF920F931F93CF93DF93CDB7DEB763
:102A200062970FB6F894DEBF0FBECDBFE090B7043B
:102A3000F090B804D701ED91FC91A280B380198287
:102A40001A821B82F70136968E010F5F1F4F6701B6
:102A5000B9E0CB0ED11C21912115F1F082818115B5
:102A6000D9F0422F50E060E070E09A01AB012F5F97
:102A70003F4F4F4F5F4F90E0A0E0B0E00196A11DA7
:102A8000B11DDC010E9455379B01AC01AFEFB0E0F6
:102A90000E946A37D8018C930F5F1F4FEC15FD051C
:102AA000D1F629813A814B81D7011D96ED91FC9198
:102AB0001E9712966D917C91BCE7AB16B0E1BB06F8
:102AC00009F041C0D7011C965C91CF01F7FD36C0DB
:102AD0007A8369839C838B839E838D832D873E8736
:102AE0004F875130B9F11C861B861A8619861886C5
:102AF0001F8283E0888B1A8A198AF7FD1CC0D701D0
:102B0000ED91FC910288F389E02DBE016F5F7F4F4C
:102B1000C701099562960FB6F894DEBF0FBECDBF10
:102B2000DF91CF911F910F91FF90EF90DF90CF90A9
:102B3000BF90AF9008958DEF888BE1CF88279927BC
:102B40008E1B9F0BC5CF8901242FAF01C701F50153
:102B50000995E0CF909161089F5F892F87708093DE
:102B60006108492F47954427479591FD406492FDA0
:102B70004062405F9E01295F3F4F8E01065F1F4FFD
:102B8000C12CDD24D394D90116966C91611529F0DE
:102B900070E0C6010E9404376F5FD90113966C93F1
:102BA0001397842F869F080E80E0811D11248D933A
:102BB0009D01811511F081508E93611521F06150B6
:102BC000D90112966C9302171307E9F692CF4F9230
:102BD0005F926F927F928F929F92AF92BF92CF92AD
:102BE000DF92EF92FF920F931F93CF93DF93DC015D
:102BF000ED91FC91119738B1932E689494F828B117
:102C00002F7E28B91A967C911A9717968C91179750
:102C1000A72EA81A1796AC9217971F968C911F97FC
:102C2000082E000C990B1296CD90DC9013971D96F0
:102C30004C911D971C965C911C971E966C911E974B
:102C400088248394840E5F5F6F5F1696FC901697BE
:102C50001896EC9018971996DC9119971B961C9171
:102C6000C1812601D12CD2014D2D0D2D3D2D31815B
:102C7000CC27889431113A0D08F43FEFA194889441
:102C800080FCC30FC795889481FCC30FC7958894B7
:102C900082FCC30FC795889483FCC30FC7958894A3
:102CA00084FCC30FC795889485FCC30FC79588948F
:102CB00086FCC30FC795889487FCC30FC79588947B
:102CC000432F81104C2FA70EC42F002C98B800C0A2
:102CD000C7FF28B930814427889400C000C0002C69
:102CE00028B931113F0D00C0002C98B800C0C6FFB4
:102CF00028B908F43FEFF194889400C000C0002C7C
:102D000028B950FD430F00C0002C98B800C0C5FF83
:102D100028B94795889451FD430F00C000C0002C8E
:102D200028B94795889400C0002C98B800C0C4FF0B
:102D300028B952FD430F4795889400C000C0002C6D
:102D400028B953FD430F00C0002C98B800C0C3FF42
:102D500028B94795889454FD430F00C000C0002C4B
:102D600028B94795889400C0002C98B800C0C2FFCD
:102D700028B955FD430F4795889400C000C0002C2A
:102D800028B956FD430F00C0002C98B800C0C1FF01
:102D900028B94795889457FD430F00C000C0002C08
:102DA00028B94795889400C0002C98B800C0C0FF8F
:102DB00028B9C32F5111C42FFD0E00C000C0002C34
:102DC00028B900C000C0002C98B800C0C7FF28B9BF
:102DD00032814427889400C000C0002C28B93111EA
:102DE0003E0D00C0002C98B800C0C6FF28B908F4FA
:102DF0003FEFE80FF91F00C000C0002C28B960FDAC
:102E0000430F00C0002C98B800C0C5FF28B94795F3
:102E1000889461FD430F00C000C0002C28B947957D
:102E2000889400C0002C98B800C0C4FF28B962FD87
:102E3000430F4795889400C000C0002C28B963FD5B
:102E4000430F00C0002C98B800C0C3FF28B94795B5
:102E5000889464FD430F00C000C0002C28B947953A
:102E6000889400C0002C98B800C0C2FF28B965FD46
:102E7000430F4795889400C000C0002C28B966FD18
:102E8000430F00C0002C98B800C0C1FF28B9479577
:102E9000889467FD430F00C000C0002C28B94795F7
:102EA000889400C0002C98B800C0C0FF28B9C32F78
:102EB0006111C42FE19400C000C0002C28B9E10EBC
:102EC00000C000C098B800C0C7FF28B931814427AE
:102ED000889400C000C0002C28B931113A0D00C000
:102EE000002C98B800C0C6FF28B908F43FEFA194A1
:102EF000889400C000C0002C28B980FC430F00C09B
:102F0000002C98B800C0C5FF28B94795889481FC6B
:102F1000430F00C000C0002C28B94795889400C01A
:102F2000002C98B800C0C4FF28B982FC430F479515
:102F3000889400C000C0002C28B983FC430F00C057
:102F4000002C98B800C0C3FF28B94795889484FC2A
:102F5000430F00C000C0002C28B94795889400C0DA
:102F6000002C98B800C0C2FF28B985FC430F4795D4
:102F7000889400C000C0002C28B986FC430F00C014
:102F8000002C98B800C0C1FF28B94795889487FCE9
:102F9000430F00C000C0002C28B94795889400C09A
:102FA000002C98B800C0C0FF28B9C32F8110C42FCF
:102FB000A70E00C000C0002C28B9119709F086CEDA
:102FC000DF91CF911F910F91FF90EF90DF90CF9005
:102FD000BF90AF909F908F907F906F905F904F9039
:102FE0000895EF92FF920F931F93CF93DF93EC011D
:102FF0008B0142D82F853889621B730B69307105AC
:10300000C1F3B8F3F894F801428153811416150600
:103010002CF4C801DCDDF8014281538120EE31E05F
:10302000DA010E946437DC01CB0164E0B695A79514
:10303000979587956A95D1F720E030E0F9016AE924
:10304000469F040EE11D569FE00DF11D1124E50F72
:10305000F11D8E0F9F1FA11DB11D893EF3E09F073B
:10306000A105B10508F437C0B695A7959795879542
:10307000B695A795979587958A5F9109A109B1099A
:10308000A90127E0829F080E411D929F400D511D0E
:103090001124490F511D3091FC04232F30E0280FDB
:1030A000391F240F351F8091A4049091A504A0918D
:1030B000A604B091A704432F5527840F951FA11D87
:1030C000B11D8093A4049093A504A093A604B0938B
:1030D000A7042093FC0478940E943C10788B6F879F
:1030E000DF91CF911F910F91FF90EF9008954F9234
:1030F0005F926F927F928F929F92AF92BF92CF9288
:10310000DF92EF92FF920F931F93CF93DF93DC0137
:10311000ED91FC91119738B1932E689495F828B1F0
:103120002F7D28B91A967C911A9717968C9117972C
:10313000A72EA81A1796AC9217971F968C911F97D7
:10314000082E000C990B1296CD90DC9013971D96CB
:103150004C911D971C965C911C971E966C911E9726
:1031600088248394840E5F5F6F5F1696FC90169799
:103170001896EC9018971996DC9119971B961C914C
:10318000C1812601D12CD2014D2D0D2D3D2D318136
:10319000CC27889431113A0D08F43FEFA19488941C
:1031A00080FCC30FC795889481FCC30FC795889492
:1031B00082FCC30FC795889483FCC30FC79588947E
:1031C00084FCC30FC795889485FCC30FC79588946A
:1031D00086FCC30FC795889487FCC30FC795889456
:1031E000432F81104C2FA70EC42F002C98B800C07D
:1031F000C7FF28B930814427889400C000C0002C44
:1032000028B931113F0D00C0002C98B800C0C6FF8E
:1032100028B908F43FEFF194889400C000C0002C56
:1032200028B950FD430F00C0002C98B800C0C5FF5E
:1032300028B94795889451FD430F00C000C0002C69
:1032400028B94795889400C0002C98B800C0C4FFE6
:1032500028B952FD430F4795889400C000C0002C48
:1032600028B953FD430F00C0002C98B800C0C3FF1D
:1032700028B94795889454FD430F00C000C0002C26
:1032800028B94795889400C0002C98B800C0C2FFA8
:1032900028B955FD430F4795889400C000C0002C05
:1032A00028B956FD430F00C0002C98B800C0C1FFDC
:1032B00028B94795889457FD430F00C000C0002CE3
:1032C00028B94795889400C0002C98B800C0C0FF6A
:1032D00028B9C32F5111C42FFD0E00C000C0002C0F
:1032E00028B900C000C0002C98B800C0C7FF28B99A
:1032F00032814427889400C000C0002C28B93111C5
:103300003E0D00C0002C98B800C0C6FF28B908F4D4
:103310003FEFE80FF91F00C000C0002C28B960FD86
:10332000430F00C0002C98B800C0C5FF28B94795CE
:10333000889461FD430F00C000C0002C28B9479558
:10334000889400C0002C98B800C0C4FF28B962FD62
:10335000430F4795889400C000C0002C28B963FD36
:10336000430F00C0002C98B800C0C3FF28B9479590
:10337000889464FD430F00C000C0002C28B9479515
:10338000889400C0002C98B800C0C2FF28B965FD21
:10339000430F4795889400C000C0002C28B966FDF3
:1033A000430F00C0002C98B800C0C1FF28B9479552
:1033B000889467FD430F00C000C0002C28B94795D2
:1033C000889400C0002C98B800C0C0FF28B9C32F53
:1033D0006111C42FE19400C000C0002C28B9E10E97
:1033E00000C000C098B800C0C7FF28B93181442789
:1033F000889400C000C0002C28B931113A0D00C0DB
:10340000002C98B800C0C6FF28B908F43FEFA1947B
:10341000889400C000C0002C28B980FC430F00C075
:10342000002C98B800C0C5FF28B94795889481FC46
:10343000430F00C000C0002C28B94795889400C0F5
:10344000002C98B800C0C4FF28B982FC430F4795F0
:10345000889400C000C0002C28B983FC430F00C032
:10346000002C98B800C0C3FF28B94795889484FC05
:10347000430F00C000C0002C28B94795889400C0B5
:10348000002C98B800C0C2FF28B985FC430F4795AF
:10349000889400C000C0002C28B986FC430F00C0EF
:1034A000002C98B800C0C1FF28B94795889487FCC4
:1034B000430F00C000C0002C28B94795889400C075
:1034C000002C98B800C0C0FF28B9C32F8110C42FAA
:1034D000A70E00C000C0002C28B9119709F086CEB5
:1034E000DF91CF911F910F91FF90EF90DF90CF90E0
:1034F000BF90AF909F908F907F906F905F904F9014
:103500000895EF92FF920F931F93CF93DF93EC01F7
:103510008B010E943C102F853889621B730B693028
:103520007105B9F3B0F3F894F80142815381141690
:1035300015062CF4C801DBDDF8014281538120EE31
:1035400031E0DA010E946437DC01CB0164E0B6951A
:10355000A795979587956A95D1F720E030E0F90116
:103560006AE9469F040EE11D569FE00DF11D1124EE
:10357000E50FF11D8E0F9F1FA11DB11D893EF3E0C8
:103580009F07A105B10508F437C0B695A795979593
:103590008795B695A795979587958A5F9109A10913
:1035A000B109A90127E0829F080E411D929F400D9D
:1035B000511D1124490F511D3091FC04232F30E07F
:1035C000280F391F240F351F8091A4049091A50462
:1035D000A091A604B091A704432F5527840F951FEF
:1035E000A11DB11D8093A4049093A504A093A604EB
:1035F000B093A7042093FC0478940E943C10788B2D
:103600006F87DF91CF911F910F91FF90EF900895F9
:1036100088EA94E000C0CF93DF93EC01DC011D92B7
:103620001D92CD0168E0D3D0FE01389685E0DF0120
:103630001D928A95E9F71D861E86DF91CF91089528
:103640000F931F93CF93DF93EC018B01FC016193E8
:103650007193CF0168E0BBD0CE01089625E0FC0154
:1036600011922A95E9F71D861E86B801DF91CF9148
:103670001F910F910C94DD02EF92FF920F931F9315
:10368000CF93DF93EC017C0138E0E30EF11CC7011E
:103690000E94F7028E01811134C00E5F1F4FC801D6
:1036A000B0D0811531F19D85980F9D872881398192
:1036B000232B11F09817D8F0892F880F880B8927B2
:1036C000880F282F382F37FD2095229F020E20E0EB
:1036D000211D000C221F37FD20951124822F2E87DB
:1036E000DF91CF911F910F91FF90EF9008958FEF91
:1036F0008D878E85DF91CF911F910F91FF90EF9075
:1037000008950E5F1F4FC8016ED068817981C7018F
:103710000E94DD021D86C3CFFC0112821382059632
:103720004EC0FC016083418312821382248305967C
:103730004EC0FC01608341832483059651C0EF9203
:10374000FF921F93CF93DF93EC01162F8A81861788
:1037500079F161111BC068817E0185E0E80EF11CE2
:10376000C70189D01A82C7014CD0282F8B81820FC4
:103770006C810E94E4369B8381E0211101C080E0CE
:10378000DF91CF911F91FF90EF9008957E0195E01A
:10379000E90EF11C6981C7016ED01A83C70131D0CF
:1037A000282F1F3F19F76C818B81860F821BE1CF79
:1037B000CE0105967C01F2CFFC0183810895FC01C6
:1037C000118212821382148281E085830895FC01A4
:1037D000118212821382148281E0858360830895AE
:1037E000FC016083089540912C0350912D0360915A
:1037F0002E0370912F03FC014183528363837483F2
:103800000895CF92DF92EF92FF921F93CF93DF93B1
:10381000EC011D8111112DC080912C0390912D037D
:10382000A0912E03B0912F03C980DA80EB80FC8039
:1038300048818C199D09642F70E00E94F036862F14
:10384000649FA0011124052E000C660B770B4C0D14
:103850005D1D6E1D7F1D49835A836B837C831D8292
:10386000810FDF91CF911F91FF90EF90DF90CF906C
:103870000895B9DFD1CF1F93CF93DF93EC01162FBB
:10388000B2DF1883DF91CF911F910895977E813821
:1038900024E0920709F45CC098F0883824E092078D
:1038A00009F450C060F5823824E09207D9F18438D9
:1038B0009440F1F560E087E29FE0782F892F08952A
:1038C000823024E0920741F168F4813C910509F4CB
:1038D00045C0803A924061F560E083E39FE0782F35
:1038E000892F0895883024E0920731F18032944086
:1038F000F9F461E088E99EE0782F892F08958039F6
:1039000024E0920789F1803C944091F460E087EED6
:103910009EE0782F892F089561E08DE29EE0782F58
:10392000892F089560E086E19EE0782F892F089521
:1039300060E070E080E0089561E089E59EE0782F26
:10394000892F089560E08FE49FE0782F892F0895F4
:1039500060E08BE19FE0782F892F089560E088EF89
:103960009DE0782F892F089560E082EF9EE0782F08
:10397000892F0895AC016091BB048091F604909169
:10398000F7040C945813CF93DF9300D00F92CDB768
:10399000DEB719821A821B82AE014F5F5F4F6091C2
:1039A000BB048091F6049091F7040E940F130F90CE
:1039B0000F900F90DF91CF910895EF92FF921F9398
:1039C000CF93DF9300D00F92CDB7DEB77C018FE6A7
:1039D00095E0B5DE182F81110AC0812F0F900F904E
:1039E0000F90DF91CF911F91FF90EF900895CBDF63
:1039F000F701808189838FEF8A838B838FE695E03F
:103A0000DBDEE82EF12CC701880F991F8E0D9F1D5C
:103A10006091F6047091F704680F791FCE0101964A
:103A20000E94C32E8091BB048695E80EF11CC7014D
:103A3000880F991F8E0D9F1D6091F6047091F704F9
:103A4000680F791FCE0101960E94C32EC6CF0F9337
:103A50001F93CF93DF9300D00F92CDB7DEB78C01C9
:103A600089E695E0CEDE811109C080E00F900F90CD
:103A70000F90DF91CF911F910F91089590919B0529
:103A8000890F80939B058983F80181818A838281D4
:103A90008B83CE0101966EDF0F900F900F90DF9118
:103AA000CF911F910F910895FF920F931F93CF9382
:103AB000DF93EC01162F80918905811104C090914C
:103AC0009A05961769F06091BB0470E020E0412FE1
:103AD00041958091F6049091F7040E94ED2A81E0CF
:103AE00010939A059091BB04911509F467C060E0AA
:103AF00070E000E01FEFFF24F39409C081E00F5F46
:103B00006D5F7F4F9091BB04091708F057C0E0919B
:103B1000F604F091F704E60FF71F5081B181A281FE
:103B2000412F4A1B08F440E0212F2B1B08F420E012
:103B3000312F351B08F430E099819095399F030EA1
:103B400030E0311D299F020E20E0211D499F040E07
:103B500040E0411D1124952F930F08F49FEF9083AF
:103B60003B2F320F08F43FEF31832A2F240F08F444
:103B70002FEF22834A81949F090E90E0911D90833C
:103B8000349F030E30E0311D3183249F020E20E06C
:103B9000211D228311245913B1CF91E0B31390E07A
:103BA00031E0A21330E093239F25892B0F5F6D5FD7
:103BB0007F4F9091BB04091708F4A9CFDF91CF91F3
:103BC0001F910F91FF9008954F925F926F927F9295
:103BD0008F929F92AF92BF92CF92DF92EF92FF921D
:103BE0000F931F93CF93DF93CDB7DEB765970FB6D3
:103BF000F894DEBF0FBECDBF8C018FB7F894409014
:103C00002C0350902D0360902E0370902F03E091B1
:103C10008E038FBFE0906705F09068058091510595
:103C2000811509F490C1D0904F04C09001044091D7
:103C3000520550915305609154057091550540927D
:103C400052055092530560925405709255055301E8
:103C50004201841A950AA60AB70A23E38216910440
:103C6000A104B10408F0B0C0409156055091570529
:103C70006091580570915905D301C201841B950BC1
:103C8000A60BB70B8A879B87AC87BD87C297A10518
:103C9000B10508F09FC020915A0530915B05409115
:103CA0005C0550915D052A8B3B8B4C8B5D8BB30182
:103CB000A2018A899B89AC89BD89481B590B6A0B73
:103CC0007B0B463951056105710508F479C11092E5
:103CD0005F0510926005109261051092620520E068
:103CE00030E0412C512C3201409263055092640522
:103CF0006092650570926605E20EF31EF09268050B
:103D0000E09267052091BB04211509F403C1812CC1
:103D1000912C412C512C3201B12CA12C11C0AA2480
:103D2000A394608371838283B3942091BB04FFEFDB
:103D30006F1A7F0A33E0830E911CB21608F0EBC0B5
:103D400030E040E050E0C301B2010E941737690142
:103D5000CE18DF08D80112968C91129711969C917B
:103D6000D9829A838B83BE01695F7F4FCE01019612
:103D70000E94C32EF8018281918121E02D0D2983BB
:103D80009A838B83BE016C5F7F4FCE0101960E94A8
:103D9000C32E4C2DBE016C5F7F4FCE0107960E9453
:103DA000842BE091F604F091F704E80DF91D908161
:103DB0009613B5CF91819713B2CF91E02281281746
:103DC00009F4A5C0A92AADCF82E3882E912CA12C9D
:103DD000B12C4ACF80915E052E2F281B330BD901C1
:103DE000203831050CF0CDC0A0383FEFB3070CF000
:103DF0004EC1B395E0935E0540925605509257052B
:103E0000609258057092590520E036E00E946437B0
:103E10002A853B854C855D850E9439372E873F87F3
:103E2000488B598B21153F4F4F4F5F4F0CF0B5C05A
:103E300020E03FEF4FEF5FEF2E873F87488B598B96
:103E4000C1100FC08E859F85A889B989B095A095AE
:103E5000909581959F4FAF4FBF4F8E879F87A88BBF
:103E6000B98B2091630530916405409165055091AF
:103E700066052A873B874C875D878E859F85A88945
:103E8000B989B7FD12C12E853F8548895989232BF1
:103E9000242B252B09F427C18A859B85AC85BD85FC
:103EA0002E853F8548895989B7FD0DC1281B390BDF
:103EB0004A0B5B0B8E859F85A889B98980935F0526
:103EC00090936005A0936105B093620540925A05F6
:103ED00050925B0560925C0570925D05C501B4016E
:103EE0000E94D536A5019401285D3F4F4F4F5F4F8B
:103EF0000E9439374A845B846C847D84420E531E51
:103F0000641E751EA5019401C301B201B1C090E009
:103F1000A92A07CFA12C8A2D65960FB6F894DEBF8B
:103F20000FBECDBFDF91CF911F910F91FF90EF900A
:103F3000DF90CF90BF90AF909F908F907F906F90C9
:103F40005F904F90089581E08093510540925A050B
:103F500050925B0560925C0570925D05409256053B
:103F6000509257056092580570925905409252053B
:103F7000509253056092540570925505E0935E058A
:103F8000C1CEBA95E0935E05409256055092570512
:103F9000609258057092590537CF8E859F85A88904
:103FA000B98981309140A105B1050CF449CF20E0D9
:103FB00031E040E050E02E873F87488B598B40CF5F
:103FC0008091630590916405A0916505B0916605A7
:103FD0008A879B87AC87BD8780915F05909160053C
:103FE000A0916105B09162058E879F87A88BB98BE0
:103FF0004D3351056105710508F481C08A899B899B
:10400000AC89BD898A569F4FAF4FBF4F9C01AD0110
:1040100024193509460957096E857F85888999894C
:104020000E94D5362AE530E040E050E00E94393762
:104030008A859B85AC85BD85281B390B4A0B5B0B9C
:10404000C501B4010E94D536A5019401285D3F4FFA
:104050004F4F5F4F0E9439374A845B846C847D8464
:10406000420E531E641E751EA3019201C501B401C8
:104070000E94D5369B01AC01AD2DB0E00E946A379D
:1040800023E030E040E050E00E9439372DCEE0934D
:104090005E05409256055092570560925805709201
:1040A0005905109709F4F7CDAFCE12161306140672
:1040B000150674F42E853F85488959891A861B8612
:1040C0001C861D86F7CE1A861B861C861D86F2CEA0
:1040D0009C01AD018A859B85AC85BD85281B390B6C
:1040E0004A0B5B0BE7CE2A853B854C855D85509559
:1040F0004095309521953F4F4F4F5F4FDBCE9C0150
:10410000AD018A859B85AC85BD85281B390B4A0B83
:104110005B0BE4CECF93DF93D82FC92F86E495E0D5
:104120000EDB811104C080E0DF91CF91089586E419
:1041300095E042DB90914F04899F602D11248D2FD3
:104140009C2FDF91CF91B0CC0F931F93CF93DF9330
:1041500000D00F92CDB7DEB78B01909191059111F0
:1041600007C0FB0190819093990591E09093910590
:104170008F3F41F18130D9F08CE895E00E94210316
:10418000811599F08FEF909199059983F8019181AC
:104190009A838B83CE010196EDDB0F900F900F90E9
:1041A000DF91CF911F910F91089580E4ECCFF8013A
:1041B00080818093990564EF71E08CE895E00E941E
:1041C000DD02DACFF801808180588093990564EF91
:1041D00071E08CE895E00E94DD02CECF811143C0F2
:1041E00050E06FEF7FEFA0E09091BB04892F8695A0
:1041F0008115A9F020E030E080E0E091F604F09134
:10420000F704E20FF31FA083118272838F5F9091F6
:10421000BB042D5F3F4F492F4695841770F38917D4
:10422000C0F4452FE82FF0E09F01220F331F2E0F1F
:104230003F1FE091F604F091F704E20FF31F608353
:10424000118242838F5F2D5F3F4F9091BB0489178E
:1042500080F368EE73E081EC94E00E94DD0281E07F
:104260008093890508955FEF60E070E0AFEFBCCF09
:10427000DC01262F5091BB04852F642F0E94E43669
:10428000829F802D11248115B9F0E091F604F09100
:10429000F704282F30E0B901660F771F620F731FF4
:1042A0006E0F7F1F2D913D914C9112972193319369
:1042B0004193E617F707B1F78517B8F4482F50E098
:1042C0009A01220F331F240F351FE091F604F0915D
:1042D000F704E20FF31F1082118212828F5F2D5FAD
:1042E0003F4F9091BB04891780F368EE73E081EC37
:1042F00094E00E94DD0281E08093890508950F9388
:104300001F93CF93DF93C82F8B01D091890581EC48
:1043100094E00E942103811117C09091020495300E
:1043200009F460C0C8F4923009F457C040F5911503
:1043300009F43DC080910104811509F45FC06C2F20
:1043400089E094E03ADBD82B109289058D2FDF911C
:10435000CF911F910F910895983071F1E8F4963044
:10436000B1F16091F6047091F7042BE134E04091D3
:10437000BB048AE795E00E948713D82BE5CF9330E2
:1043800081F080910104811509F43AC06C2F82E11B
:1043900094E01ADCD82BD8CF9930B1F6F4DAD82BC8
:1043A000D3CF60E08FE094E07FDBD82BCDCF86E0E9
:1043B00094E0E0DAD82BC8CFA8016091BB048091CB
:1043C000F6049091F7040E94AD13D82BBDCF68E19D
:1043D00074E08C2FB9DED82BB7CF8CE094E037DBBC
:1043E000D82BB2CF80910104811531F06C2F85E17B
:1043F00094E090DED82BA8CFC195F8CFC1959FCF80
:10440000C195C4CFCF93DF9300D00F92CDB7DEB765
:1044100019821A821B82AE014F5F5F4F60E186EC0A
:1044200094E00E940F130F900F900F90DF91CF91A7
:104430000895CF92DF92EF92CF93DF93811116C050
:10444000E6ECF4E0A6EFB4E0219131914191EF0167
:10445000EE90DE90CE90EA92DA92CA922D933D933E
:104460004C93129784E0EE3DF80771F7DF91CF91FE
:10447000EF90DF90CF900895CF93DF93D82F609186
:1044800087037091880383E395E00E94A109C82FF8
:1044900080918B058C1306C080E0C0938B05DF9163
:1044A000CF910895AFDF6C2F70E020EF40E086ECF5
:1044B00094E00E94BA2A8D2FBCDF81E0C0938B0567
:1044C000DF91CF9108951F93CF93DF93D82F8091E1
:1044D00058028F708093E9008091E80082FF09C044
:1044E0008091E80085FD43C08091E8008B77809340
:1044F000E80089E592E00E94F702C82FADEFB4E032
:10450000E3EFF4E066EC74E0811120C012963C9178
:10451000129711962C9111979C914081941769F0F4
:10452000C1E090832183328313969F012350310988
:104530006E177F0791F0F901E9CF41812413F0CF85
:1045400081E04281431781F0C82BEBCF8DE295E0EB
:1045500058D9182F81111AC0C0E08D2F6ADF8C2F17
:10456000DF91CF911F91089580E0C82BDACF40E012
:1045700050E060E370E08DEF94E00E94CE2F68EE93
:1045800073E089E592E00E94DD02AECF3BDF8091CF
:104590008A05180F1F7010938A058FE090E0811B29
:1045A0009109FC01EE0FFF1FE80FF91FEA53FB4FC3
:1045B0008FEF8083818382838D2F3BDF8C2FDF9170
:1045C000CF911F910895CF92DF92EF920F931F9397
:1045D000CF93DF936091BB0470E00091F6041091DB
:1045E000F704A6ECB4E0C6EFD4E020E030E080E0D1
:1045F000A901529542954F7045275F704527FA01F2
:10460000EE0FFF1FE40FF51FE00FF11F4C9190819B
:104610004917A1F081E0C080D180E280CD92DD9287
:10462000ED92260F371FCA17DB0711F7DF91CF91E5
:104630001F910F91EF90DF90CF90089511964C91BC
:10464000119791814913E6CF91E012965C911297F0
:104650004281541711F0892BDECF90E0892BDBCFFC
:10466000CF93C091450520915404211119C0209188
:104670000404253069F150F4223089F1243001F12D
:10468000213081F480E0F8DEC82B0CC0273021F106
:10469000283069F0263031F481E015DFC82B02C0E4
:1046A00092DFC82B109245058C2FCF91089541E5DC
:1046B00054E060E186EC94E00E945813C82BF2CFDE
:1046C000AC0160E186EC94E00E94AD13C82BEACF08
:1046D00080E0F9DEC82BE6CF95DEC82BE3CF81E082
:1046E000CBDEC82BDFCF6091BC042091BB042695A4
:1046F00049E1649F402D112482E3689F602D1124BD
:104700008FE695E016C80F931F93CF93C82F8B01A8
:104710000E94E713811104C0CF911F910F9108955A
:10472000B8016E5F7F4F8C2FEADD81110AC0C8018E
:10473000059696DF811581F3CF911F910F910C940F
:1047400004150E942114F3CF68EB7BE08AE795E023
:104750000E94201B8FE695E00E948C1B64E689E690
:1047600095E035D820E042E063E086E495E00E94E1
:10477000911B60E183E395E00E94860962E38DE28C
:1047800095E025C8EF92FF920F931F93CF93DF938D
:10479000E901F801DB0111968C91813819F1833818
:1047A00069F08091EB0080628093EB0080E0DF9104
:1047B000CF911F910F91FF90EF9008958DE090E0C1
:1047C000918380836FE774E08091870390918803E1
:1047D0000E948C069C014DE063E274E0CE010E94D1
:1047E0006206E4CF84E090E0918380836FE774E019
:1047F00080918703909188030E948C067C01880F2A
:10480000892F881F990B9195E894E7F8209155041A
:10481000211589F02FE728832FE729832E2D382FA4
:10482000C9019B838A8381E0DF91CF911F910F9112
:10483000FF90EF90089520919C05EDCFFB0180A1A2
:10484000811539F0813009F008958CE792E00C94DD
:104850000C3680E992E00C940C362FB7F8946091F6
:104860002C0370912D0380912E0390912F032FBF65
:1048700008952F923F924F925F926F927F928F9204
:104880009F92AF92BF92CF92DF92EF92FF920F93DF
:104890001F93CF93DF93CDB7DEB72A970FB6F89467
:1048A000DEBF0FBECDBF00918703109188039091AA
:1048B0005504911531F08F3F09F44DC1813009F451
:1048C00044C1D801AF77BB278FB7F894C0902C03B1
:1048D000D0902D03E0902E03F0902F038FBF2091F6
:1048E0002A08211509F424C18091260890912708EF
:1048F0002D01482259225A8249824091280850911C
:1049000029082090240830902508E8EFF7E080E09F
:1049100090E0622E712C812C912C6F827886898692
:104920009A8621E030E0082E02C0220F331F0A943D
:10493000E2F7BA0162237323672BC1F08080918074
:10494000A280B38026013701481859086A087B08FD
:104950008F809884A984BA84481459046A047B041B
:1049600028F0B9016095709546235723BD01622355
:104970007323672B99F0B101642B752B622373238A
:10498000672B61F4A980BA80A22AB32ABA82A982CD
:10499000422B532BC082D182E282F382019634965D
:1049A0008B30910509F0BDCF69817A81709327081A
:1049B000609326085093290840932808B09325084F
:1049C000A09324080078062B172B109388030093DC
:1049D0008703D801A078B7708FB7F894C0902C03E4
:1049E000D0902D03E0902E03F0902F038FBF2091E5
:1049F000F707211509F48FC08091F3079091F40710
:104A00002D01482259225A8249824091F50750913E
:104A1000F6072090F1073090F207E5ECF7E080E030
:104A200090E0622E712C812C912C6F827886898681
:104A30009A8621E030E0082E02C0220F331F0A942C
:104A4000E2F7BA0162237323672BC1F08080918063
:104A5000A280B38026013701481859086A087B08EC
:104A60008F809884A984BA84481459046A047B040A
:104A700028F0B9016095709546235723BD01622344
:104A80007323672B99F0B101642B752B6223732379
:104A9000672B61F4A980BA80A22AB32ABA82A982BC
:104AA000422B532BC082D182E282F382019634964C
:104AB0008B30910509F0BDCF69817A817093F4073D
:104AC0006093F3075093F6074093F507B093F2070E
:104AD000A093F1070F77187F062B172B10938803ED
:104AE000009387032A960FB6F894DEBF0FBECDBFA2
:104AF000DF91CF911F910F91FF90EF90DF90CF90BA
:104B0000BF90AF909F908F907F906F905F904F90ED
:104B10003F902F900895B093F407A093F307B093BC
:104B2000F207A093F1071092F6071092F507D6CF7F
:104B3000B0932708A0932608B0932508A0932408D3
:104B4000109229081092280840CF10611093880312
:104B500000938703B6CE18601093880300938703F1
:104B6000B0CE2F923F924F925F926F927F928F9230
:104B70009F92AF92BF92CF92DF92EF92FF920F93EC
:104B80001F93CF93DF93CDB7DEB762970FB6F8943C
:104B9000DEBF0FBECDBF8C0169877A872C0122E072
:104BA000420E511C80915E028F708093E9008091CB
:104BB000E80082FF09C08091E80085FDA5C28091D0
:104BC000E8008B778093E80087E593E00E94A703D5
:104BD00044DE6B017C01A985BA8513967C9087E53C
:104BE00093E00E94990390919D05E82FE91BFF0B2C
:104BF0009F0160909E05E038F1050CF447C13A959D
:104C000080939D05EFEF4091A8055091A905609113
:104C1000AA057091AB058AEF90E0A0E0B0E04115E5
:104C2000510561057105D1F0DB01CA01880F991F9B
:104C3000AA1FBB1F840F951FA61FB71F8E3191059A
:104C4000A105B10508F46DC2893E43E09407A105B2
:104C5000B10520F088EE93E0A0E0B0E040919F0520
:104C60004E1709F426C2C092A005D092A105E09289
:104C7000A205F092A3051092A8051092A905109222
:104C8000AA051092AB05E0939F05C092A405D092AF
:104C9000A505E092A605F092A705711409F409C1D3
:104CA0008091A0059091A105A091A205B091A305C6
:104CB00046015701881A990AAA0ABB0A78141904EE
:104CC0001A041B0408F4F5C087E593E00E949903D9
:104CD000282FA985BA8592964C9161E08AE393E0EA
:104CE0000E943503782E8091AC05E62DE81BFF0B62
:104CF0009F018090AD059090AE05A090AF05B0905B
:104D0000B005E038F1050CF40AC1AF015A95052E43
:104D1000000C660B770B840E951EA61EB71E8FEF38
:104D20008092AD059092AE05A092AF05B092B0050D
:104D30006092AC058093BB05C092B105D092B205DC
:104D4000E092B305F092B405C092B505D092B605D5
:104D5000E092B705F092B8051092BA051092B90525
:104D6000282D89859A858A5A9F4FDC013C91809134
:104D7000C407381709F4B0C09091BE078091BF07EF
:104D8000ECEBF5E0908381833296B7E0EC3BFB07D8
:104D9000C9F73093C407EC2DF0E0EE0FFF1FE45489
:104DA000FA4F20837182C092C007D092C107E0926F
:104DB000C207F092C3072093BC077092BD07311160
:104DC0007CC02093BE077092BF07798220939C0518
:104DD00089814FDD9FB6F894809187039091880375
:104DE00090938A03809389038FB1880F82709927EB
:104DF00079999395892B80938B0387E593E00E94A3
:104E0000990380938C0360928D0380919C0580931D
:104E10008E03A980A0928F0380916003909161031B
:104E2000A0916203B09163038093900390939103E8
:104E3000A0939203B09393038091640390916503D0
:104E400090939503809394039FBED80112968D9101
:104E50009C910E94B406B201872D62960FB6F89419
:104E6000DEBF0FBECDBFDF91CF911F910F91FF909D
:104E7000EF90DF90CF90BF90AF909F908F907F90FA
:104E80006F905F904F903F902F903DCC2038FFEF78
:104E90003F072CF4339580939D05E1E0B4CE8093D9
:104EA0009D052115310509F40FCF0CF4ABCEE1E0DF
:104EB000AACE620E60929E0507CFC31AEC2DF0E0D9
:104EC000EE0FFF1FE454FA4F2081818089822093E6
:104ED000BE078092BF077ACF8091C0079091C1072B
:104EE000A091C207B091C307B701A601481B590B97
:104EF0006A0B7B0B4115E1E05E076105710508F463
:104F00001FC1ECEBF5E06CEB77E08091BC07909172
:104F1000BD07819391936E177F07B9F73CCF203877
:104F2000FFEF3F075CF43395032E000C440B550B49
:104F3000820E931EA41EB51E81E0F2CE1216130639
:104F40009CF32115310509F0F1C0A985BA85929627
:104F50002C90211409F49FC03090BB05311409F442
:104F60009AC02091B1053091B2054091B30550919E
:104F7000B40529833A834B835C83422D50E060E083
:104F800070E04D835E836F837887C701B601298106
:104F90003A814B815C81621B730B840B950B6F878D
:104FA000788B898B9A8B261617061806190640F4FB
:104FB0004D815E816F8178854F87588B698B7A8BA5
:104FC0006091B5057091B6058091B7059091B805CF
:104FD00029813A814B815C81621B730B840B950B99
:104FE00069837A838B839C832D813E814F81588591
:104FF000261737074807590720F429833A834B833C
:105000005C8349815A816B817C818F859889A989CC
:10501000BA89481759076A077B0798F59C01AD01C3
:1050200069817A818B819C81261B370B480B590B38
:10503000A4E6B0E00E946A372091B9053091BA0524
:10504000620F731F811D911D28EE33E040E050E098
:105050000E9417377093BA056093B9054427552706
:10506000A32D330CBB0B0E947437860E971EA81E0F
:10507000B91E8092AD059092AE05A092AF05B09298
:10508000B005C092B505D092B605E092B705F09292
:10509000B805282D66CEC092B505D092B605E0922F
:1050A000B705F092B8051092BA051092B905282DEF
:1050B00058CE8090A4059090A505A090A605B0902C
:1050C000A705B701A601481959096A097B0949834F
:1050D0005A836B837C8384179507A607B70708F468
:1050E000C2CD69817A818B819C81611571058105B1
:1050F000910509F4C8CD6093A8057093A905809324
:10510000AA059093AB05BFCD40E050E068E070E0A9
:10511000C20144D768EE73E08FE592E00E94DD02A1
:105120004ECD8EE190E0A0E0B0E098CD032E000CD3
:10513000440B550B820E931EA41EB51E8FEFF0CDAF
:10514000452B462B472B09F426CE8F5F6C2D4091C3
:10515000BC075091BD07E82FF0E0EE0FFF1FE454AD
:10516000FA4F51834083982F8F5F9613F4CF13CE5D
:10517000DF92EF92FF920F931F93CF93DF93EB0198
:105180009B8180910304981306C09AA18091220408
:10519000981709F4CFC061DB7B018C01D0909C058E
:1051A00087E593E00E94990380939D05D0929E0528
:1051B000E092A405F092A5050093A6051093A7051B
:1051C000E092A005F092A1050093A2051093A3051B
:1051D00010929F051092A8051092A9051092AA0599
:1051E0001092AB0580919C058093AC0590E0A0E007
:1051F000B0E08093AD059093AE05A093AF05B0935A
:10520000B005E092B105F092B2050093B30510939A
:10521000B405E092B505F092B6050093B70510937A
:10522000B8051092BA051092B9051092BB0587E532
:1052300093E00E949903282F41E061E08AE393E024
:105240000E942B03FE01EA5AFF4F808120919C05AA
:10525000ECEBF5E020831182329697E0EC3BF90706
:10526000C9F7E092C007F092C1070093C2071093FC
:10527000C3072093BE071092BF072091BE0730914D
:10528000BF073093BD072093BC078093C4079A8162
:1052900080910204981729F00E94C31C81E080933A
:1052A00089059C8180910404981721F0ABD881E096
:1052B0008093450581E09981911101C080E00E94B1
:1052C0003206FE01E55BFF4F808180932A08109231
:1052D0002908109228081092270810922608109288
:1052E0002508109224088CE2E8EFF7E0DF01982F00
:1052F0001D929A95E9F7C45BDF4F98819093F70769
:105300001092F6071092F5071092F4071092F30727
:105310001092F2071092F107E5ECF7E0DF011D9221
:105320008A95E9F7DF91CF911F910F91FF90EF9050
:10533000DF900895FB01EB5AFF4F90818091550457
:10534000981329CFA4CFCF92DF92EF92FF920F93C1
:105350001F93CF93DF938C01DC015F968C91D4D0A7
:1053600085E692E0909385038093840386E49CE134
:105370009093F5038093F40387E593E00E949903EB
:10538000282F41E061E08AE393E00E942B0387E548
:1053900093E00E94990380939C055FDA7B01D82FEC
:1053A000C92FD0909C0587E593E00E9499038093D4
:1053B0009D05D0929E05E092A405F092A505D0939C
:1053C000A605C093A705E092A005F092A105D09391
:1053D000A205C093A30510929F051092A8051092F4
:1053E000A9051092AA051092AB0537DAC0919C0569
:1053F000C093AC05CC2ED12CE12CF12CC092AD0584
:10540000D092AE05E092AF05F092B0056093B10581
:105410007093B2058093B3059093B4056093B5057E
:105420007093B6058093B7059093B8051092BA05AE
:105430001092B9051092BB05F801EA5AFF4FD081CE
:105440000CDAECEBF5E0C08311823296B7E0EC3B6E
:10545000FB07C9F76093C0077093C1078093C20729
:105460009093C307C093BE071092BF078091BE07F9
:105470009091BF079093BD078093BC07D093C4075A
:10548000F801E55BFF4F808180932A08109229087C
:1054900010922808109227081092260810922508CA
:1054A000109224088CE2E8EFF7E0DF01282F1D922C
:1054B0002A95E9F7F801E45BFF4F90819093F70795
:1054C0001092F6071092F5071092F4071092F30766
:1054D0001092F2071092F107E5ECF7E0DF011D9260
:1054E0008A95E9F781E0F8019181911101C080E08E
:1054F0000E943206C801DF91CF911F910F91FF905A
:10550000EF90DF90CF90EFC826E633E0813031F0A6
:1055100028E733E0823011F424E533E08FE993E0AB
:105520009093A3048093A2048FE791E09093A10449
:105530008093A0048AE893E090939F0480939E0454
:1055400085E190E090939D0480939C0430939B04AC
:1055500020939A0487EC92E09093990480939804A6
:1055600081E18093970480EA92E09093960480937F
:1055700095040895DF92EF92FF920F931F93CF93BC
:10558000DF9300D00F92CDB7DEB7D22E49832FEF35
:105590002B8320EF2A8316161706A4F48C017B01B7
:1055A000EE0CFF1CE60EF71EE00EF11EB801CE0158
:1055B0000196E9D389818D0D89830D5F1F4F0E15EB
:1055C0001F05A1F70F900F900F90DF91CF911F91C2
:1055D0000F91FF90EF90DF9008958F929F92AF927E
:1055E000BF92CF92DF92EF92FF920F931F93CF93D0
:1055F000DF9300D00F92CDB7DEB75C017B01D42ED4
:10560000C22E61157105B9F149838FEF8B8380EF4D
:105610008A839B0140E050E06FEF7FEF80E090E0F5
:105620000E94393749011E141F042CF585015701CA
:10563000AA0CBB1CAE0CBF1CA00EB11EE12CF12CA1
:105640000AC0E818F9088D2D8F0D89830D5F1F4F53
:105650000A151B0581F0B801CE01019694D3C11043
:10566000F0CFE80CF91C8D2D8F0D89830D5F1F4F36
:105670000A151B0581F70F900F900F90DF91CF91C6
:105680001F910F91FF90EF90DF90CF90BF90AF9060
:105690009F908F900895FC01DB01411509F42AC009
:1056A0004F3F09F429C03C912081922F832F249FE2
:1056B00080199109349F800D911D112490831196BA
:1056C0003C9111972181922F832F249F801991095A
:1056D000349F800D911D1124918312963C9122815B
:1056E000922F832F249F80199109349F800D911D43
:1056F00011249283CF0108958D919D91AC91808367
:105700009183A283CF010895CF93DF9300D00F92AE
:10571000CDB7DEB7FC0180819181A28189839A8314
:10572000AB83CE010196B7DF69817A818B810F90BF
:105730000F900F90DF91CF9108958FB7F89420913B
:105740002C0330912D0340912E0350912F03E6B589
:10575000A89B06C0EF3F21F02F5F3F4F4F4F5F4F99
:105760008FBFAAEFB0E00E946A376E0F711D811DD6
:10577000911D660F771F881F991F660F771F881F5F
:10578000991F0895FC018FEF808312821182148685
:1057900013868FEF9FEFDC0187839087A187B28705
:1057A0000895CF93DF93C0913508D09136082097A4
:1057B00091F08A819B81009749F02D853E85A90152
:1057C000440F551F420F531F60E082D30C80DD81D0
:1057D000C02D209771F7DF91CF9108958F929F92FE
:1057E000AF92BF92CF92DF92EF92FF92CF93DF936F
:1057F000EC0180914A0890914B089C012F5F3F4F2C
:1058000030934B0820934A08861797075CF4DF9182
:10581000CF91FF90EF90DF90CF90BF90AF909F908F
:105820008F900895C0902C03D0902D03E0902E030C
:10583000F0902F0388EE93E0289FB001299F700D10
:10584000389F700D1124072E000C880B990B809047
:10585000460890904708A0904808B0904908A701D2
:105860009601281939094A095B09C814D904EA04C0
:10587000FB04C9F00E9417373A83298310924B0822
:1058800010924A0880912C0390912D03A0912E0331
:10589000B0912F038093460890934708A09348083F
:1058A000B0934908B4CF21E030E040E050E0E2CFCF
:1058B0002F923F924F925F926F927F928F929F9220
:1058C000AF92BF92CF92DF92EF92FF920F931F930E
:1058D000CF93DF93CDB7DEB7CE58D1090FB6F8948A
:1058E000DEBF0FBECDBFCC57DF4F8883C458D0403A
:1058F000CB57DF4F9883C558D040CA57DF4F6883D6
:10590000C658D040C957DF4F7883C758D040742E4F
:10591000CC57DF4FE881F981C458D040838194810E
:10592000A581B681892B8A2B8B2B09F023C105DF3A
:1059300060934C0870934D0880934E0890934F08E5
:10594000CC57DF4FA881B981C458D0401B96ED9148
:10595000FC91309779F0CC57DF4FA881B981C458BA
:10596000D04017964D915D916D917C911A97872D3E
:105970000995782EFE01319680E8DF011D928A9507
:10598000E9F7E0903508F0903608E114F10409F4E5
:10599000CFC05F016E01B1E8CB0ED11C2F01872D66
:1059A00090E0A0E0B0E0C557DF4F88839983AA83D9
:1059B000BB83CB58D040F701A081B1811C96ED91FB
:1059C000FC911D9720E1E536F20709F0F0C0F701E0
:1059D0002484312CF201219231922F01CC57DF4FD8
:1059E000E881F981C458D040818192818436910543
:1059F00010F4F70114868D909C90D6011C9211969C
:105A00001C92119712961C92711409F444C0F7016C
:105A10003696A6018701075F1F4FC857DF4F99824F
:105A20008882C858D040C657DF4F7882CA58D040C5
:105A30008191811501F162806114E9F090E0A0E0AC
:105A4000B0E00196A11DB11D9C01C557DF4FA88193
:105A5000B981CB58D0400E945537712C812C912CA4
:105A6000BFEF6B1A7B0A8B0A9B0A9B01D3010E9432
:105A70005537DA018C934F5F5F4FE017F107C1F69E
:105A8000C857DF4F88809980C858D040C657DF4F2D
:105A90007880CA58D040F601008111812281D70157
:105AA0001D964D915C91CA57DF4F6881C658D04012
:105AB000C957DF4F7881C758D040C701F401099515
:105AC000D7011496ED90FC90E114F10421F0C41478
:105AD000D50409F070CF00913508109136080115F2
